{
  "address": "0x149D0518Ea6d5188F645B5229391c5691145861d",
  "abi": [
    {
      "inputs": [
        {
          "internalType": "address",
          "name": "vrfCoordinatorV2",
          "type": "address"
        },
        {
          "internalType": "uint64",
          "name": "subscriptionId",
          "type": "uint64"
        },
        {
          "internalType": "bytes32",
          "name": "gasLane",
          "type": "bytes32"
        },
        {
          "internalType": "uint256",
          "name": "interval",
          "type": "uint256"
        },
        {
          "internalType": "uint256",
          "name": "_entranceFee",
          "type": "uint256"
        },
        {
          "internalType": "uint32",
          "name": "callbackGasLimit",
          "type": "uint32"
        }
      ],
      "stateMutability": "nonpayable",
      "type": "constructor"
    },
    {
      "inputs": [
        {
          "internalType": "address",
          "name": "have",
          "type": "address"
        },
        {
          "internalType": "address",
          "name": "want",
          "type": "address"
        }
      ],
      "name": "OnlyCoordinatorCanFulfill",
      "type": "error"
    },
    {
      "inputs": [],
      "name": "Raffle__NotEnoughEthEnteredError",
      "type": "error"
    },
    {
      "inputs": [],
      "name": "Raffle__RaffleNotOpenError",
      "type": "error"
    },
    {
      "inputs": [],
      "name": "Raffle__TransfertFailedError",
      "type": "error"
    },
    {
      "inputs": [],
      "name": "Raffle__upkeepNotReady",
      "type": "error"
    },
    {
      "anonymous": false,
      "inputs": [
        {
          "indexed": true,
          "internalType": "address",
          "name": "player",
          "type": "address"
        }
      ],
      "name": "RaffleEntered",
      "type": "event"
    },
    {
      "anonymous": false,
      "inputs": [
        {
          "indexed": true,
          "internalType": "uint256",
          "name": "RequestId",
          "type": "uint256"
        }
      ],
      "name": "RequestraffleWinner",
      "type": "event"
    },
    {
      "anonymous": false,
      "inputs": [
        {
          "indexed": true,
          "internalType": "address",
          "name": "winner",
          "type": "address"
        }
      ],
      "name": "WinnerPicked",
      "type": "event"
    },
    {
      "inputs": [
        {
          "internalType": "bytes",
          "name": "",
          "type": "bytes"
        }
      ],
      "name": "checkUpkeep",
      "outputs": [
        {
          "internalType": "bool",
          "name": "upKeepNeeded",
          "type": "bool"
        },
        {
          "internalType": "bytes",
          "name": "",
          "type": "bytes"
        }
      ],
      "stateMutability": "nonpayable",
      "type": "function"
    },
    {
      "inputs": [],
      "name": "enterRaffle",
      "outputs": [],
      "stateMutability": "payable",
      "type": "function"
    },
    {
      "inputs": [],
      "name": "getCoordinator",
      "outputs": [
        {
          "internalType": "contract VRFCoordinatorV2Interface",
          "name": "",
          "type": "address"
        }
      ],
      "stateMutability": "view",
      "type": "function"
    },
    {
      "inputs": [],
      "name": "getCurrentWinner",
      "outputs": [
        {
          "internalType": "address",
          "name": "",
          "type": "address"
        }
      ],
      "stateMutability": "view",
      "type": "function"
    },
    {
      "inputs": [],
      "name": "getEntranceFee",
      "outputs": [
        {
          "internalType": "uint256",
          "name": "",
          "type": "uint256"
        }
      ],
      "stateMutability": "view",
      "type": "function"
    },
    {
      "inputs": [],
      "name": "getInterval",
      "outputs": [
        {
          "internalType": "uint256",
          "name": "",
          "type": "uint256"
        }
      ],
      "stateMutability": "view",
      "type": "function"
    },
    {
      "inputs": [],
      "name": "getLastRaffleTimestamp",
      "outputs": [
        {
          "internalType": "uint256",
          "name": "",
          "type": "uint256"
        }
      ],
      "stateMutability": "view",
      "type": "function"
    },
    {
      "inputs": [
        {
          "internalType": "uint256",
          "name": "index",
          "type": "uint256"
        }
      ],
      "name": "getPlayer",
      "outputs": [
        {
          "internalType": "address",
          "name": "",
          "type": "address"
        }
      ],
      "stateMutability": "view",
      "type": "function"
    },
    {
      "inputs": [],
      "name": "getRaffleState",
      "outputs": [
        {
          "internalType": "enum Raffle.RaffleState",
          "name": "",
          "type": "uint8"
        }
      ],
      "stateMutability": "view",
      "type": "function"
    },
    {
      "inputs": [
        {
          "internalType": "bytes",
          "name": "",
          "type": "bytes"
        }
      ],
      "name": "performUpkeep",
      "outputs": [],
      "stateMutability": "nonpayable",
      "type": "function"
    },
    {
      "inputs": [
        {
          "internalType": "uint256",
          "name": "requestId",
          "type": "uint256"
        },
        {
          "internalType": "uint256[]",
          "name": "randomWords",
          "type": "uint256[]"
        }
      ],
      "name": "rawFulfillRandomWords",
      "outputs": [],
      "stateMutability": "nonpayable",
      "type": "function"
    }
  ],
  "transactionHash": "0x514ec67315b2688f9c25840692841167c87b4968c3053381b01a87477fe5f6f9",
  "args": [
    "0x2Ca8E0C643bDe4C2E08ab1fA0da3401AdAD7734D",
    "6141",
    "0x79d3d8832d904592c0bf9818b621522c988bb8b0c05cdc3b15aea1b6e8db0c15",
    "30",
    "10000000000000000",
    "500000"
  ],
  "numDeployments": 1,
  "solcInputHash": "4b5fdad052391cf10b96f2b28b1649e5",
  "bytecode": "0x6101606040523480156200001257600080fd5b50604051620017b7380380620017b78339818101604052810190620000389190620001ad565b858073ffffffffffffffffffffffffffffffffffffffff1660808173ffffffffffffffffffffffffffffffffffffffff1660601b81525050508160a081815250508573ffffffffffffffffffffffffffffffffffffffff1660c08173ffffffffffffffffffffffffffffffffffffffff1660601b815250508360e081815250508467ffffffffffffffff166101008167ffffffffffffffff1660c01b815250508063ffffffff166101208163ffffffff1660e01b815250506000600160146101000a81548160ff02191690836001811115620001195762000118620002b5565b5b0217905550426002819055508261014081815250505050505050506200036b565b6000815190506200014b81620002e9565b92915050565b600081519050620001628162000303565b92915050565b60008151905062000179816200031d565b92915050565b600081519050620001908162000337565b92915050565b600081519050620001a78162000351565b92915050565b60008060008060008060c08789031215620001cd57620001cc620002e4565b5b6000620001dd89828a016200013a565b9650506020620001f089828a0162000196565b95505060406200020389828a0162000151565b94505060606200021689828a0162000168565b93505060806200022989828a0162000168565b92505060a06200023c89828a016200017f565b9150509295509295509295565b6000620002568262000267565b9050919050565b6000819050919050565b600073ffffffffffffffffffffffffffffffffffffffff82169050919050565b6000819050919050565b600063ffffffff82169050919050565b600067ffffffffffffffff82169050919050565b7f4e487b7100000000000000000000000000000000000000000000000000000000600052602160045260246000fd5b600080fd5b620002f48162000249565b81146200030057600080fd5b50565b6200030e816200025d565b81146200031a57600080fd5b50565b620003288162000287565b81146200033457600080fd5b50565b620003428162000291565b81146200034e57600080fd5b50565b6200035c81620002a1565b81146200036857600080fd5b50565b60805160601c60a05160c05160601c60e0516101005160c01c6101205160e01c610140516113c9620003ee6000396000818161072801526107be01526000610614015260006105f1015260006105d0015260008181610594015261079601526000818161027e015261037b0152600081816102bb015261030f01526113c96000f3fe60806040526004361061009c5760003560e01c80634585e33b116100645780634585e33b146101555780636b3ce31a1461017e5780636e04ff0d146101a957806371977fe0146101e757806391ad27b414610212578063e55ae4e81461023d5761009c565b806309bc33a7146100a1578063115cbaf5146100cc5780631fe543e3146100f75780632cfcc53914610120578063329bfc331461012a575b600080fd5b3480156100ad57600080fd5b506100b661027a565b6040516100c39190610fd0565b60405180910390f35b3480156100d857600080fd5b506100e16102a2565b6040516100ee9190610fb5565b60405180910390f35b34801561010357600080fd5b5061011e60048036038101906101199190610d7f565b6102b9565b005b610128610379565b005b34801561013657600080fd5b5061013f6104e8565b60405161014c9190610ed3565b60405180910390f35b34801561016157600080fd5b5061017c60048036038101906101779190610c8f565b610512565b005b34801561018a57600080fd5b506101936106dc565b6040516101a09190610fd0565b60405180910390f35b3480156101b557600080fd5b506101d060048036038101906101cb9190610cdc565b6106e6565b6040516101de929190610f17565b60405180910390f35b3480156101f357600080fd5b506101fc610792565b6040516102099190610f9a565b60405180910390f35b34801561021e57600080fd5b506102276107ba565b6040516102349190610fd0565b60405180910390f35b34801561024957600080fd5b50610264600480360381019061025f9190610d25565b6107e2565b6040516102719190610ed3565b60405180910390f35b60007f0000000000000000000000000000000000000000000000000000000000000000905090565b6000600160149054906101000a900460ff16905090565b7f000000000000000000000000000000000000000000000000000000000000000073ffffffffffffffffffffffffffffffffffffffff163373ffffffffffffffffffffffffffffffffffffffff161461036b57337f00000000000000000000000000000000000000000000000000000000000000006040517f1cf993f4000000000000000000000000000000000000000000000000000000008152600401610362929190610eee565b60405180910390fd5b6103758282610829565b5050565b7f00000000000000000000000000000000000000000000000000000000000000003410156103d3576040517f9f50ee4900000000000000000000000000000000000000000000000000000000815260040160405180910390fd5b600060018111156103e7576103e66112a9565b5b600160149054906101000a900460ff166001811115610409576104086112a9565b5b14610440576040517fbab12fa500000000000000000000000000000000000000000000000000000000815260040160405180910390fd5b6000339080600181540180825580915050600190039060005260206000200160009091909190916101000a81548173ffffffffffffffffffffffffffffffffffffffff021916908373ffffffffffffffffffffffffffffffffffffffff1602179055503373ffffffffffffffffffffffffffffffffffffffff167f634f3211e3a4e43fee5a21ad9f87ca153b300fc78b1c557a2057dbe9c63bcb4760405160405180910390a2565b6000600160009054906101000a900473ffffffffffffffffffffffffffffffffffffffff16905090565b600061052c604051806020016040528060008152506106e6565b50905080610566576040517f36b9ebaf00000000000000000000000000000000000000000000000000000000815260040160405180910390fd5b60018060146101000a81548160ff0219169083600181111561058b5761058a6112a9565b5b021790555060007f000000000000000000000000000000000000000000000000000000000000000073ffffffffffffffffffffffffffffffffffffffff16635d3b1d307f00000000000000000000000000000000000000000000000000000000000000007f000000000000000000000000000000000000000000000000000000000000000060037f000000000000000000000000000000000000000000000000000000000000000060016040518663ffffffff1660e01b8152600401610655959493929190610f47565b602060405180830381600087803b15801561066f57600080fd5b505af1158015610683573d6000803e3d6000fd5b505050506040513d601f19601f820116820180604052508101906106a79190610d52565b9050807ff3a5620d862d6bd1b4dac7a2dbe02b100e8d70f792db9ed8b13cdeed17daea4f60405160405180910390a250505050565b6000600254905090565b6000606060008060018111156106ff576106fe6112a9565b5b600160149054906101000a900460ff166001811115610721576107206112a9565b5b14905060007f0000000000000000000000000000000000000000000000000000000000000000600254426107559190611094565b119050600080600080549050119050600080471190508380156107755750825b801561077e5750815b80156107875750805b955050505050915091565b60007f0000000000000000000000000000000000000000000000000000000000000000905090565b60007f0000000000000000000000000000000000000000000000000000000000000000905090565b60008082815481106107f7576107f66112d8565b5b9060005260206000200160009054906101000a900473ffffffffffffffffffffffffffffffffffffffff169050919050565b6000808054905082600081518110610844576108436112d8565b5b6020026020010151610856919061121a565b9050600080828154811061086d5761086c6112d8565b5b9060005260206000200160009054906101000a900473ffffffffffffffffffffffffffffffffffffffff16905080600160006101000a81548173ffffffffffffffffffffffffffffffffffffffff021916908373ffffffffffffffffffffffffffffffffffffffff16021790555060008173ffffffffffffffffffffffffffffffffffffffff164760405161090190610ebe565b60006040518083038185875af1925050503d806000811461093e576040519150601f19603f3d011682016040523d82523d6000602084013e610943565b606091505b505090508061097e576040517ffc094b2e00000000000000000000000000000000000000000000000000000000815260040160405180910390fd5b600067ffffffffffffffff81111561099957610998611307565b5b6040519080825280602002602001820160405280156109c75781602001602082028036833780820191505090505b50600090805190602001906109dd929190610a5a565b506000600160146101000a81548160ff02191690836001811115610a0457610a036112a9565b5b0217905550426002819055508173ffffffffffffffffffffffffffffffffffffffff167f5b690ec4a06fe979403046eaeea5b3ce38524683c3001f662c8b5a829632f7df60405160405180910390a25050505050565b828054828255906000526020600020908101928215610ad3579160200282015b82811115610ad25782518260006101000a81548173ffffffffffffffffffffffffffffffffffffffff021916908373ffffffffffffffffffffffffffffffffffffffff16021790555091602001919060010190610a7a565b5b509050610ae09190610ae4565b5090565b5b80821115610afd576000816000905550600101610ae5565b5090565b6000610b14610b0f84611010565b610feb565b90508083825260208201905082856020860282011115610b3757610b36611340565b5b60005b85811015610b675781610b4d8882610c65565b845260208401935060208301925050600181019050610b3a565b5050509392505050565b6000610b84610b7f8461103c565b610feb565b905082815260208101848484011115610ba057610b9f611345565b5b610bab8482856111a7565b509392505050565b600082601f830112610bc857610bc761133b565b5b8135610bd8848260208601610b01565b91505092915050565b60008083601f840112610bf757610bf661133b565b5b8235905067ffffffffffffffff811115610c1457610c13611336565b5b602083019150836001820283011115610c3057610c2f611340565b5b9250929050565b600082601f830112610c4c57610c4b61133b565b5b8135610c5c848260208601610b71565b91505092915050565b600081359050610c748161137c565b92915050565b600081519050610c898161137c565b92915050565b60008060208385031215610ca657610ca561134f565b5b600083013567ffffffffffffffff811115610cc457610cc361134a565b5b610cd085828601610be1565b92509250509250929050565b600060208284031215610cf257610cf161134f565b5b600082013567ffffffffffffffff811115610d1057610d0f61134a565b5b610d1c84828501610c37565b91505092915050565b600060208284031215610d3b57610d3a61134f565b5b6000610d4984828501610c65565b91505092915050565b600060208284031215610d6857610d6761134f565b5b6000610d7684828501610c7a565b91505092915050565b60008060408385031215610d9657610d9561134f565b5b6000610da485828601610c65565b925050602083013567ffffffffffffffff811115610dc557610dc461134a565b5b610dd185828601610bb3565b9150509250929050565b610de4816110c8565b82525050565b610df3816110da565b82525050565b610e02816110e6565b82525050565b6000610e138261106d565b610e1d8185611078565b9350610e2d8185602086016111b6565b610e3681611354565b840191505092915050565b610e4a8161115f565b82525050565b610e5981611171565b82525050565b6000610e6c600083611089565b9150610e7782611365565b600082019050919050565b610e8b81611103565b82525050565b610e9a81611131565b82525050565b610ea98161113b565b82525050565b610eb88161114b565b82525050565b6000610ec982610e5f565b9150819050919050565b6000602082019050610ee86000830184610ddb565b92915050565b6000604082019050610f036000830185610ddb565b610f106020830184610ddb565b9392505050565b6000604082019050610f2c6000830185610dea565b8181036020830152610f3e8184610e08565b90509392505050565b600060a082019050610f5c6000830188610df9565b610f696020830187610eaf565b610f766040830186610e82565b610f836060830185610ea0565b610f906080830184610ea0565b9695505050505050565b6000602082019050610faf6000830184610e41565b92915050565b6000602082019050610fca6000830184610e50565b92915050565b6000602082019050610fe56000830184610e91565b92915050565b6000610ff5611006565b905061100182826111e9565b919050565b6000604051905090565b600067ffffffffffffffff82111561102b5761102a611307565b5b602082029050602081019050919050565b600067ffffffffffffffff82111561105757611056611307565b5b61106082611354565b9050602081019050919050565b600081519050919050565b600082825260208201905092915050565b600081905092915050565b600061109f82611131565b91506110aa83611131565b9250828210156110bd576110bc61124b565b5b828203905092915050565b60006110d382611111565b9050919050565b60008115159050919050565b6000819050919050565b60008190506110fe82611368565b919050565b600061ffff82169050919050565b600073ffffffffffffffffffffffffffffffffffffffff82169050919050565b6000819050919050565b600063ffffffff82169050919050565b600067ffffffffffffffff82169050919050565b600061116a82611183565b9050919050565b600061117c826110f0565b9050919050565b600061118e82611195565b9050919050565b60006111a082611111565b9050919050565b82818337600083830152505050565b60005b838110156111d45780820151818401526020810190506111b9565b838111156111e3576000848401525b50505050565b6111f282611354565b810181811067ffffffffffffffff8211171561121157611210611307565b5b80604052505050565b600061122582611131565b915061123083611131565b9250826112405761123f61127a565b5b828206905092915050565b7f4e487b7100000000000000000000000000000000000000000000000000000000600052601160045260246000fd5b7f4e487b7100000000000000000000000000000000000000000000000000000000600052601260045260246000fd5b7f4e487b7100000000000000000000000000000000000000000000000000000000600052602160045260246000fd5b7f4e487b7100000000000000000000000000000000000000000000000000000000600052603260045260246000fd5b7f4e487b7100000000000000000000000000000000000000000000000000000000600052604160045260246000fd5b600080fd5b600080fd5b600080fd5b600080fd5b600080fd5b600080fd5b6000601f19601f8301169050919050565b50565b60028110611379576113786112a9565b5b50565b61138581611131565b811461139057600080fd5b5056fea26469706673582212209e38c692ef6ca9cfa2fe37812816efa4dce7ed7c5050f5a6b697d3b87a4d9e9564736f6c63430008070033",
  "devdoc": {
    "kind": "dev",
    "methods": {},
    "version": 1
  },
  "userdoc": {
    "kind": "user",
    "methods": {},
    "version": 1
  },
  "storageLayout": {
    "storage": [
      {
        "astId": 191,
        "contract": "contracts/raffle.sol:Raffle",
        "label": "s_players",
        "offset": 0,
        "slot": "0",
        "type": "t_array(t_address_payable)dyn_storage"
      },
      {
        "astId": 208,
        "contract": "contracts/raffle.sol:Raffle",
        "label": "s_currentWinner",
        "offset": 0,
        "slot": "1",
        "type": "t_address"
      },
      {
        "astId": 211,
        "contract": "contracts/raffle.sol:Raffle",
        "label": "s_raffleState",
        "offset": 20,
        "slot": "1",
        "type": "t_enum(RaffleState)186"
      },
      {
        "astId": 213,
        "contract": "contracts/raffle.sol:Raffle",
        "label": "s_lastRaffleTimestamp",
        "offset": 0,
        "slot": "2",
        "type": "t_uint256"
      }
    ],
    "types": {
      "t_address": {
        "encoding": "inplace",
        "label": "address",
        "numberOfBytes": "20"
      },
      "t_address_payable": {
        "encoding": "inplace",
        "label": "address payable",
        "numberOfBytes": "20"
      },
      "t_array(t_address_payable)dyn_storage": {
        "base": "t_address_payable",
        "encoding": "dynamic_array",
        "label": "address payable[]",
        "numberOfBytes": "32"
      },
      "t_enum(RaffleState)186": {
        "encoding": "inplace",
        "label": "enum Raffle.RaffleState",
        "numberOfBytes": "1"
      },
      "t_uint256": {
        "encoding": "inplace",
        "label": "uint256",
        "numberOfBytes": "32"
      }
    }
  }
}